{
  "address": "0xa40CDB7595fb14F932F56EaA6Aa00E5062B8aa08",
  "abi": [
    {
      "inputs": [
        {
          "internalType": "address",
          "name": "_receiver",
          "type": "address"
        },
        {
          "internalType": "address",
          "name": "_dtecAddress",
          "type": "address"
        },
        {
          "internalType": "address",
          "name": "_lockerAddress",
          "type": "address"
        }
      ],
      "stateMutability": "nonpayable",
      "type": "constructor"
    },
    {
      "inputs": [],
      "name": "CantBuy",
      "type": "error"
    },
    {
      "inputs": [],
      "name": "OverUnderAllowedAmt",
      "type": "error"
    },
    {
      "inputs": [],
      "name": "Unauthorized",
      "type": "error"
    },
    {
      "anonymous": false,
      "inputs": [
        {
          "indexed": true,
          "internalType": "address",
          "name": "previousOwner",
          "type": "address"
        },
        {
          "indexed": true,
          "internalType": "address",
          "name": "newOwner",
          "type": "address"
        }
      ],
      "name": "OwnershipTransferred",
      "type": "event"
    },
    {
      "anonymous": false,
      "inputs": [
        {
          "indexed": false,
          "internalType": "address",
          "name": "account",
          "type": "address"
        }
      ],
      "name": "Paused",
      "type": "event"
    },
    {
      "anonymous": false,
      "inputs": [
        {
          "indexed": false,
          "internalType": "address",
          "name": "account",
          "type": "address"
        }
      ],
      "name": "Unpaused",
      "type": "event"
    },
    {
      "inputs": [],
      "name": "MAX_TOKENS_TO_BUY",
      "outputs": [
        {
          "internalType": "uint256",
          "name": "",
          "type": "uint256"
        }
      ],
      "stateMutability": "view",
      "type": "function"
    },
    {
      "inputs": [],
      "name": "MIN_TOKENS_TO_BUY",
      "outputs": [
        {
          "internalType": "uint256",
          "name": "",
          "type": "uint256"
        }
      ],
      "stateMutability": "view",
      "type": "function"
    },
    {
      "inputs": [],
      "name": "USDC",
      "outputs": [
        {
          "internalType": "address",
          "name": "",
          "type": "address"
        }
      ],
      "stateMutability": "view",
      "type": "function"
    },
    {
      "inputs": [],
      "name": "USDT",
      "outputs": [
        {
          "internalType": "address",
          "name": "",
          "type": "address"
        }
      ],
      "stateMutability": "view",
      "type": "function"
    },
    {
      "inputs": [
        {
          "internalType": "address[]",
          "name": "_mods",
          "type": "address[]"
        }
      ],
      "name": "addMods",
      "outputs": [],
      "stateMutability": "nonpayable",
      "type": "function"
    },
    {
      "inputs": [
        {
          "internalType": "address[]",
          "name": "_wallets",
          "type": "address[]"
        }
      ],
      "name": "addWLs",
      "outputs": [],
      "stateMutability": "nonpayable",
      "type": "function"
    },
    {
      "inputs": [
        {
          "internalType": "address",
          "name": "",
          "type": "address"
        }
      ],
      "name": "addressToBoughtAmt",
      "outputs": [
        {
          "internalType": "uint256",
          "name": "",
          "type": "uint256"
        }
      ],
      "stateMutability": "view",
      "type": "function"
    },
    {
      "inputs": [
        {
          "internalType": "uint256",
          "name": "_amt",
          "type": "uint256"
        },
        {
          "internalType": "bool",
          "name": "_preferUSDC",
          "type": "bool"
        }
      ],
      "name": "allocateTokens",
      "outputs": [],
      "stateMutability": "nonpayable",
      "type": "function"
    },
    {
      "inputs": [
        {
          "internalType": "address",
          "name": "",
          "type": "address"
        }
      ],
      "name": "allocations",
      "outputs": [
        {
          "internalType": "uint256",
          "name": "",
          "type": "uint256"
        }
      ],
      "stateMutability": "view",
      "type": "function"
    },
    {
      "inputs": [],
      "name": "amountSold",
      "outputs": [
        {
          "internalType": "uint256",
          "name": "",
          "type": "uint256"
        }
      ],
      "stateMutability": "view",
      "type": "function"
    },
    {
      "inputs": [
        {
          "internalType": "uint256",
          "name": "_amt",
          "type": "uint256"
        },
        {
          "internalType": "bool",
          "name": "_preferUSDC",
          "type": "bool"
        }
      ],
      "name": "buyTokens",
      "outputs": [],
      "stateMutability": "nonpayable",
      "type": "function"
    },
    {
      "inputs": [
        {
          "internalType": "address",
          "name": "_to",
          "type": "address"
        }
      ],
      "name": "claimAllocation",
      "outputs": [],
      "stateMutability": "nonpayable",
      "type": "function"
    },
    {
      "inputs": [],
      "name": "dtecTokenAddress",
      "outputs": [
        {
          "internalType": "address",
          "name": "",
          "type": "address"
        }
      ],
      "stateMutability": "view",
      "type": "function"
    },
    {
      "inputs": [
        {
          "internalType": "uint256",
          "name": "_amt",
          "type": "uint256"
        }
      ],
      "name": "getBuyCost",
      "outputs": [
        {
          "internalType": "uint256",
          "name": "",
          "type": "uint256"
        }
      ],
      "stateMutability": "view",
      "type": "function"
    },
    {
      "inputs": [],
      "name": "immediateReleaseRate",
      "outputs": [
        {
          "internalType": "uint256",
          "name": "",
          "type": "uint256"
        }
      ],
      "stateMutability": "view",
      "type": "function"
    },
    {
      "inputs": [],
      "name": "lockerAddress",
      "outputs": [
        {
          "internalType": "address",
          "name": "",
          "type": "address"
        }
      ],
      "stateMutability": "view",
      "type": "function"
    },
    {
      "inputs": [],
      "name": "owner",
      "outputs": [
        {
          "internalType": "address",
          "name": "",
          "type": "address"
        }
      ],
      "stateMutability": "view",
      "type": "function"
    },
    {
      "inputs": [],
      "name": "paused",
      "outputs": [
        {
          "internalType": "bool",
          "name": "",
          "type": "bool"
        }
      ],
      "stateMutability": "view",
      "type": "function"
    },
    {
      "inputs": [
        {
          "internalType": "uint256",
          "name": "_amt",
          "type": "uint256"
        }
      ],
      "name": "pullTokens",
      "outputs": [],
      "stateMutability": "nonpayable",
      "type": "function"
    },
    {
      "inputs": [],
      "name": "renounceOwnership",
      "outputs": [],
      "stateMutability": "nonpayable",
      "type": "function"
    },
    {
      "inputs": [],
      "name": "salePrice",
      "outputs": [
        {
          "internalType": "uint256",
          "name": "",
          "type": "uint256"
        }
      ],
      "stateMutability": "view",
      "type": "function"
    },
    {
      "inputs": [
        {
          "internalType": "uint256",
          "name": "_rate",
          "type": "uint256"
        }
      ],
      "name": "setImmediateReleaseRate",
      "outputs": [],
      "stateMutability": "nonpayable",
      "type": "function"
    },
    {
      "inputs": [
        {
          "internalType": "address",
          "name": "_receiver",
          "type": "address"
        }
      ],
      "name": "setPaymentReceiver",
      "outputs": [],
      "stateMutability": "nonpayable",
      "type": "function"
    },
    {
      "inputs": [
        {
          "internalType": "uint256",
          "name": "_price",
          "type": "uint256"
        }
      ],
      "name": "setSalePrice",
      "outputs": [],
      "stateMutability": "nonpayable",
      "type": "function"
    },
    {
      "inputs": [
        {
          "internalType": "address",
          "name": "_usdc",
          "type": "address"
        },
        {
          "internalType": "address",
          "name": "_usdt",
          "type": "address"
        }
      ],
      "name": "setStableAddresses",
      "outputs": [],
      "stateMutability": "nonpayable",
      "type": "function"
    },
    {
      "inputs": [],
      "name": "togglePause",
      "outputs": [],
      "stateMutability": "nonpayable",
      "type": "function"
    },
    {
      "inputs": [
        {
          "internalType": "address",
          "name": "newOwner",
          "type": "address"
        }
      ],
      "name": "transferOwnership",
      "outputs": [],
      "stateMutability": "nonpayable",
      "type": "function"
    },
    {
      "inputs": [
        {
          "internalType": "address",
          "name": "",
          "type": "address"
        }
      ],
      "name": "wl",
      "outputs": [
        {
          "internalType": "uint8",
          "name": "",
          "type": "uint8"
        }
      ],
      "stateMutability": "view",
      "type": "function"
    }
  ],
  "transactionHash": "0x4a433ac02458b9065429124b1a16d1168ccff305ee6588a686df7b8c9ea93048",
  "args": [
    "0xDCbA1401ce2f323e5e1A11f35A7787323e078b64",
    "0xE8F6408a38b2Fbfc4Cf072ecC6efE195476bf883",
    "0xB4754EdB866A05Ac7cC1B9BFaEfA900707c1a76d"
  ],
  "numDeployments": 1,
  "solcInputHash": "9b5880265a87cdaccb37bbff136bc4c6",
  "bytecode": "0x6080604052732791bca1f2de4661ed88a30c99a7a9449aa84174600a60006101000a81548173ffffffffffffffffffffffffffffffffffffffff021916908373ffffffffffffffffffffffffffffffffffffffff16021790555073c2132d05d31c914a87c6611c10748aeb04b58e8f600b60006101000a81548173ffffffffffffffffffffffffffffffffffffffff021916908373ffffffffffffffffffffffffffffffffffffffff160217905550348015620000bb57600080fd5b5060405162002ec038038062002ec08339818101604052810190620000e191906200058b565b82828262000104620000f86200028760201b60201c565b6200028f60201b60201c565b60008060146101000a81548160ff0219169083151502179055506001808190555082600860006101000a81548173ffffffffffffffffffffffffffffffffffffffff021916908373ffffffffffffffffffffffffffffffffffffffff16021790555081600760006101000a81548173ffffffffffffffffffffffffffffffffffffffff021916908373ffffffffffffffffffffffffffffffffffffffff16021790555080600660006101000a81548173ffffffffffffffffffffffffffffffffffffffff021916908373ffffffffffffffffffffffffffffffffffffffff1602179055506001600360003373ffffffffffffffffffffffffffffffffffffffff1673ffffffffffffffffffffffffffffffffffffffff16815260200190815260200160002060006101000a81548160ff021916908360ff160217905550620002516200035360201b60201c565b5050506200026660c8620003c860201b60201c565b6200027e66f8b0a10e470000620003e260201b60201c565b5050506200070a565b600033905090565b60008060009054906101000a900473ffffffffffffffffffffffffffffffffffffffff169050816000806101000a81548173ffffffffffffffffffffffffffffffffffffffff021916908373ffffffffffffffffffffffffffffffffffffffff1602179055508173ffffffffffffffffffffffffffffffffffffffff168173ffffffffffffffffffffffffffffffffffffffff167f8be0079c531659141344cd1fd0a4f28419497f9722a3daafe3b4186f6b6457e060405160405180910390a35050565b62000363620003fc60201b60201c565b6001600060146101000a81548160ff0219169083151502179055507f62e78cea01bee320cd4e420270b5ea74000d11b0c9f74754ebdbfc544b05a258620003af6200028760201b60201c565b604051620003be9190620005f8565b60405180910390a1565b620003d86200045160201b60201c565b8060098190555050565b620003f26200045160201b60201c565b8060028190555050565b6200040c620004e260201b60201c565b156200044f576040517f08c379a0000000000000000000000000000000000000000000000000000000008152600401620004469062000676565b60405180910390fd5b565b620004616200028760201b60201c565b73ffffffffffffffffffffffffffffffffffffffff1662000487620004f860201b60201c565b73ffffffffffffffffffffffffffffffffffffffff1614620004e0576040517f08c379a0000000000000000000000000000000000000000000000000000000008152600401620004d790620006e8565b60405180910390fd5b565b60008060149054906101000a900460ff16905090565b60008060009054906101000a900473ffffffffffffffffffffffffffffffffffffffff16905090565b600080fd5b600073ffffffffffffffffffffffffffffffffffffffff82169050919050565b6000620005538262000526565b9050919050565b620005658162000546565b81146200057157600080fd5b50565b60008151905062000585816200055a565b92915050565b600080600060608486031215620005a757620005a662000521565b5b6000620005b78682870162000574565b9350506020620005ca8682870162000574565b9250506040620005dd8682870162000574565b9150509250925092565b620005f28162000546565b82525050565b60006020820190506200060f6000830184620005e7565b92915050565b600082825260208201905092915050565b7f5061757361626c653a2070617573656400000000000000000000000000000000600082015250565b60006200065e60108362000615565b91506200066b8262000626565b602082019050919050565b6000602082019050818103600083015262000691816200064f565b9050919050565b7f4f776e61626c653a2063616c6c6572206973206e6f7420746865206f776e6572600082015250565b6000620006d060208362000615565b9150620006dd8262000698565b602082019050919050565b600060208201905081810360008301526200070381620006c1565b9050919050565b6127a6806200071a6000396000f3fe608060405234801561001057600080fd5b50600436106101c45760003560e01c806365ebf99a116100f9578063ac1ac54711610097578063c4ae316811610071578063c4ae3168146104b9578063c54e44eb146104c3578063f2fde38b146104e1578063f51f96dd146104fd576101c4565b8063ac1ac54714610451578063aedd70d41461046d578063bee04dd714610489576101c4565b80637e0db6cc116100d35780637e0db6cc146103dd57806389a30271146103f95780638a61d8a5146104175780638da5cb5b14610433576101c4565b806365ebf99a1461039b578063715018a6146103b757806371ce6b4a146103c1576101c4565b8063498ea0c01161016657806352a16bb01161014057806352a16bb01461031357806352a9039c146103315780635c975abb146103615780635ef684711461037f576101c4565b8063498ea0c0146102bb5780634b157f21146102d957806350a10405146102f5576101c4565b80631d4562eb116101a25780631d4562eb146102335780632fee9e7e14610251578063356911e7146102815780633675f29b1461029d576101c4565b8063040483cd146101c95780630ae66820146101e75780631919fed714610217575b600080fd5b6101d161051b565b6040516101de9190611cfc565b60405180910390f35b61020160048036038101906101fc9190611d4d565b610522565b60405161020e9190611cfc565b60405180910390f35b610231600480360381019061022c9190611d4d565b610539565b005b61023b61054b565b6040516102489190611cfc565b60405180910390f35b61026b60048036038101906102669190611dd8565b610552565b6040516102789190611e21565b60405180910390f35b61029b60048036038101906102969190611ea1565b610572565b005b6102a5610620565b6040516102b29190611efd565b60405180910390f35b6102c3610646565b6040516102d09190611efd565b60405180910390f35b6102f360048036038101906102ee9190611f50565b61066c565b005b6102fd61085b565b60405161030a9190611cfc565b60405180910390f35b61031b610861565b6040516103289190611cfc565b60405180910390f35b61034b60048036038101906103469190611dd8565b610867565b6040516103589190611cfc565b60405180910390f35b61036961087f565b6040516103769190611f9f565b60405180910390f35b61039960048036038101906103949190611dd8565b610895565b005b6103b560048036038101906103b09190611dd8565b610b6e565b005b6103bf610bba565b005b6103db60048036038101906103d69190611ea1565b610bce565b005b6103f760048036038101906103f29190611d4d565b610cb3565b005b610401610d6c565b60405161040e9190611efd565b60405180910390f35b610431600480360381019061042c9190611d4d565b610d92565b005b61043b610da4565b6040516104489190611efd565b60405180910390f35b61046b60048036038101906104669190611f50565b610dcd565b005b61048760048036038101906104829190611fba565b610fbc565b005b6104a3600480360381019061049e9190611dd8565b61104a565b6040516104b09190611cfc565b60405180910390f35b6104c1611062565b005b6104cb61108f565b6040516104d89190611efd565b60405180910390f35b6104fb60048036038101906104f69190611dd8565b6110b5565b005b610505611138565b6040516105129190611cfc565b60405180910390f35b6215cc5c81565b6000600254826105329190612029565b9050919050565b61054161113e565b8060028190555050565b6201170481565b600d6020528060005260406000206000915054906101000a900460ff1681565b61057a61113e565b60005b8282905081101561061b576001600360008585858181106105a1576105a061206b565b5b90506020020160208101906105b69190611dd8565b73ffffffffffffffffffffffffffffffffffffffff1673ffffffffffffffffffffffffffffffffffffffff16815260200190815260200160002060006101000a81548160ff021916908360ff16021790555080806106139061209a565b91505061057d565b505050565b600660009054906101000a900473ffffffffffffffffffffffffffffffffffffffff1681565b600760009054906101000a900473ffffffffffffffffffffffffffffffffffffffff1681565b6106746111bc565b6001600d60003373ffffffffffffffffffffffffffffffffffffffff1673ffffffffffffffffffffffffffffffffffffffff16815260200190815260200160002060009054906101000a900460ff1660ff16146106fd576040517f1ab7ae5600000000000000000000000000000000000000000000000000000000815260040160405180910390fd5b6201170482101561073a576040517fce817bad00000000000000000000000000000000000000000000000000000000815260040160405180910390fd5b81600e60003373ffffffffffffffffffffffffffffffffffffffff1673ffffffffffffffffffffffffffffffffffffffff1681526020019081526020016000205461078591906120e2565b600e60003373ffffffffffffffffffffffffffffffffffffffff1673ffffffffffffffffffffffffffffffffffffffff168152602001908152602001600020819055506215cc5c600e60003373ffffffffffffffffffffffffffffffffffffffff1673ffffffffffffffffffffffffffffffffffffffff168152602001908152602001600020541115610844576040517fce817bad00000000000000000000000000000000000000000000000000000000815260040160405180910390fd5b61084f33838361120b565b6108576112b2565b5050565b60095481565b600c5481565b60046020528060005260406000206000915090505481565b60008060149054906101000a900460ff16905090565b6000600460003373ffffffffffffffffffffffffffffffffffffffff1673ffffffffffffffffffffffffffffffffffffffff16815260200190815260200160002054905060008103610913576040517f1ab7ae5600000000000000000000000000000000000000000000000000000000815260040160405180910390fd5b60008061091f836112bb565b915091506000600460003373ffffffffffffffffffffffffffffffffffffffff1673ffffffffffffffffffffffffffffffffffffffff16815260200190815260200160002081905550826005600082825461097a9190612116565b925050819055506000600760009054906101000a900473ffffffffffffffffffffffffffffffffffffffff1690508073ffffffffffffffffffffffffffffffffffffffff1663a9059cbb600660009054906101000a900473ffffffffffffffffffffffffffffffffffffffff16846040518363ffffffff1660e01b8152600401610a0592919061214a565b6020604051808303816000875af1158015610a24573d6000803e3d6000fd5b505050506040513d601f19601f82011682018060405250810190610a489190612188565b506000600660009054906101000a900473ffffffffffffffffffffffffffffffffffffffff1690508073ffffffffffffffffffffffffffffffffffffffff1663b1c2558687856040518363ffffffff1660e01b8152600401610aab92919061214a565b600060405180830381600087803b158015610ac557600080fd5b505af1158015610ad9573d6000803e3d6000fd5b505050506000841115610b66578173ffffffffffffffffffffffffffffffffffffffff1663a9059cbb87866040518363ffffffff1660e01b8152600401610b2192919061214a565b6020604051808303816000875af1158015610b40573d6000803e3d6000fd5b505050506040513d601f19601f82011682018060405250810190610b649190612188565b505b505050505050565b610b7661113e565b80600860006101000a81548173ffffffffffffffffffffffffffffffffffffffff021916908373ffffffffffffffffffffffffffffffffffffffff16021790555050565b610bc261113e565b610bcc6000611308565b565b610bd7336113cc565b610c0d576040517f82b4290000000000000000000000000000000000000000000000000000000000815260040160405180910390fd5b60005b82829050811015610cae576001600d6000858585818110610c3457610c3361206b565b5b9050602002016020810190610c499190611dd8565b73ffffffffffffffffffffffffffffffffffffffff1673ffffffffffffffffffffffffffffffffffffffff16815260200190815260200160002060006101000a81548160ff021916908360ff1602179055508080610ca69061209a565b915050610c10565b505050565b610cbb61113e565b6000600760009054906101000a900473ffffffffffffffffffffffffffffffffffffffff1690508073ffffffffffffffffffffffffffffffffffffffff1663a9059cbb610d06610da4565b846040518363ffffffff1660e01b8152600401610d2492919061214a565b6020604051808303816000875af1158015610d43573d6000803e3d6000fd5b505050506040513d601f19601f82011682018060405250810190610d679190612188565b505050565b600a60009054906101000a900473ffffffffffffffffffffffffffffffffffffffff1681565b610d9a61113e565b8060098190555050565b60008060009054906101000a900473ffffffffffffffffffffffffffffffffffffffff16905090565b610dd56111bc565b6001600d60003373ffffffffffffffffffffffffffffffffffffffff1673ffffffffffffffffffffffffffffffffffffffff16815260200190815260200160002060009054906101000a900460ff1660ff1614610e5e576040517f1ab7ae5600000000000000000000000000000000000000000000000000000000815260040160405180910390fd5b62011704821015610e9b576040517fce817bad00000000000000000000000000000000000000000000000000000000815260040160405180910390fd5b81600e60003373ffffffffffffffffffffffffffffffffffffffff1673ffffffffffffffffffffffffffffffffffffffff16815260200190815260200160002054610ee691906120e2565b600e60003373ffffffffffffffffffffffffffffffffffffffff1673ffffffffffffffffffffffffffffffffffffffff168152602001908152602001600020819055506215cc5c600e60003373ffffffffffffffffffffffffffffffffffffffff1673ffffffffffffffffffffffffffffffffffffffff168152602001908152602001600020541115610fa5576040517fce817bad00000000000000000000000000000000000000000000000000000000815260040160405180910390fd5b610fb0338383611428565b610fb86112b2565b5050565b610fc461113e565b81600a60006101000a81548173ffffffffffffffffffffffffffffffffffffffff021916908373ffffffffffffffffffffffffffffffffffffffff16021790555080600b60006101000a81548173ffffffffffffffffffffffffffffffffffffffff021916908373ffffffffffffffffffffffffffffffffffffffff1602179055505050565b600e6020528060005260406000206000915090505481565b61106a61113e565b61107261087f565b156110845761107f61164a565b61108d565b61108c6116ac565b5b565b600b60009054906101000a900473ffffffffffffffffffffffffffffffffffffffff1681565b6110bd61113e565b600073ffffffffffffffffffffffffffffffffffffffff168173ffffffffffffffffffffffffffffffffffffffff160361112c576040517f08c379a000000000000000000000000000000000000000000000000000000000815260040161112390612238565b60405180910390fd5b61113581611308565b50565b60025481565b61114661170f565b73ffffffffffffffffffffffffffffffffffffffff16611164610da4565b73ffffffffffffffffffffffffffffffffffffffff16146111ba576040517f08c379a00000000000000000000000000000000000000000000000000000000081526004016111b1906122a4565b60405180910390fd5b565b600260015403611201576040517f08c379a00000000000000000000000000000000000000000000000000000000081526004016111f890612310565b60405180910390fd5b6002600181905550565b611213611717565b6000611220848484611761565b9250505080600460008673ffffffffffffffffffffffffffffffffffffffff1673ffffffffffffffffffffffffffffffffffffffff168152602001908152602001600020600082825461127391906120e2565b92505081905550806005600082825461128c91906120e2565b9250508190555082600c60008282546112a591906120e2565b9250508190555050505050565b60018081905550565b600080600083905060008060095411156112fb57612710600954866112e09190612029565b6112ea919061235f565b905080856112f89190612116565b91505b8082935093505050915091565b60008060009054906101000a900473ffffffffffffffffffffffffffffffffffffffff169050816000806101000a81548173ffffffffffffffffffffffffffffffffffffffff021916908373ffffffffffffffffffffffffffffffffffffffff1602179055508173ffffffffffffffffffffffffffffffffffffffff168173ffffffffffffffffffffffffffffffffffffffff167f8be0079c531659141344cd1fd0a4f28419497f9722a3daafe3b4186f6b6457e060405160405180910390a35050565b60006001600360008473ffffffffffffffffffffffffffffffffffffffff1673ffffffffffffffffffffffffffffffffffffffff16815260200190815260200160002060009054906101000a900460ff1660ff16149050919050565b611430611717565b60008061143e858585611761565b50915091506000600760009054906101000a900473ffffffffffffffffffffffffffffffffffffffff1690508073ffffffffffffffffffffffffffffffffffffffff1663a9059cbb600660009054906101000a900473ffffffffffffffffffffffffffffffffffffffff16846040518363ffffffff1660e01b81526004016114c792919061214a565b6020604051808303816000875af11580156114e6573d6000803e3d6000fd5b505050506040513d601f19601f8201168201806040525081019061150a9190612188565b506000600660009054906101000a900473ffffffffffffffffffffffffffffffffffffffff1690508073ffffffffffffffffffffffffffffffffffffffff1663b1c2558688856040518363ffffffff1660e01b815260040161156d92919061214a565b600060405180830381600087803b15801561158757600080fd5b505af115801561159b573d6000803e3d6000fd5b505050506000841115611628578173ffffffffffffffffffffffffffffffffffffffff1663a9059cbb88866040518363ffffffff1660e01b81526004016115e392919061214a565b6020604051808303816000875af1158015611602573d6000803e3d6000fd5b505050506040513d601f19601f820116820180604052508101906116269190612188565b505b85600c600082825461163a91906120e2565b9250508190555050505050505050565b61165261197c565b60008060146101000a81548160ff0219169083151502179055507f5db9ee0a495bf2e6ff9c91a7834c1ba4fdd244a5e8aa4e537bd38aeae4b073aa61169561170f565b6040516116a29190611efd565b60405180910390a1565b6116b4611717565b6001600060146101000a81548160ff0219169083151502179055507f62e78cea01bee320cd4e420270b5ea74000d11b0c9f74754ebdbfc544b05a2586116f861170f565b6040516117059190611efd565b60405180910390a1565b600033905090565b61171f61087f565b1561175f576040517f08c379a0000000000000000000000000000000000000000000000000000000008152600401611756906123dc565b60405180910390fd5b565b600080600080850361179f576040517f1ab7ae5600000000000000000000000000000000000000000000000000000000815260040160405180910390fd5b6000670de0b6b3a7640000866117b59190612029565b90506000600554600760009054906101000a900473ffffffffffffffffffffffffffffffffffffffff1673ffffffffffffffffffffffffffffffffffffffff166370a08231306040518263ffffffff1660e01b81526004016118179190611efd565b602060405180830381865afa158015611834573d6000803e3d6000fd5b505050506040513d601f19601f820116820180604052508101906118589190612411565b6118629190612116565b90508082111561189e576040517f1ab7ae5600000000000000000000000000000000000000000000000000000000815260040160405180910390fd5b6000866118cd57600b60009054906101000a900473ffffffffffffffffffffffffffffffffffffffff166118f1565b600a60009054906101000a900473ffffffffffffffffffffffffffffffffffffffff165b90506000600254896119039190612029565b90506119548a600860009054906101000a900473ffffffffffffffffffffffffffffffffffffffff16838573ffffffffffffffffffffffffffffffffffffffff166119c5909392919063ffffffff16565b600080611960866112bb565b9150915081818798509850985050505050505093509350939050565b61198461087f565b6119c3576040517f08c379a00000000000000000000000000000000000000000000000000000000081526004016119ba9061248a565b60405180910390fd5b565b611a48846323b872dd60e01b8585856040516024016119e6939291906124aa565b604051602081830303815290604052907bffffffffffffffffffffffffffffffffffffffffffffffffffffffff19166020820180517bffffffffffffffffffffffffffffffffffffffffffffffffffffffff8381831617835250505050611a4e565b50505050565b6000611ab0826040518060400160405280602081526020017f5361666545524332303a206c6f772d6c6576656c2063616c6c206661696c65648152508573ffffffffffffffffffffffffffffffffffffffff16611b169092919063ffffffff16565b9050600081511480611ad2575080806020019051810190611ad19190612188565b5b611b11576040517f08c379a0000000000000000000000000000000000000000000000000000000008152600401611b0890612553565b60405180910390fd5b505050565b6060611b258484600085611b2e565b90509392505050565b606082471015611b73576040517f08c379a0000000000000000000000000000000000000000000000000000000008152600401611b6a906125e5565b60405180910390fd5b6000808673ffffffffffffffffffffffffffffffffffffffff168587604051611b9c9190612676565b60006040518083038185875af1925050503d8060008114611bd9576040519150601f19603f3d011682016040523d82523d6000602084013e611bde565b606091505b5091509150611bef87838387611bfb565b92505050949350505050565b60608315611c5d576000835103611c5557611c1585611c70565b611c54576040517f08c379a0000000000000000000000000000000000000000000000000000000008152600401611c4b906126d9565b60405180910390fd5b5b829050611c68565b611c678383611c93565b5b949350505050565b6000808273ffffffffffffffffffffffffffffffffffffffff163b119050919050565b600082511115611ca65781518083602001fd5b806040517f08c379a0000000000000000000000000000000000000000000000000000000008152600401611cda919061274e565b60405180910390fd5b6000819050919050565b611cf681611ce3565b82525050565b6000602082019050611d116000830184611ced565b92915050565b600080fd5b600080fd5b611d2a81611ce3565b8114611d3557600080fd5b50565b600081359050611d4781611d21565b92915050565b600060208284031215611d6357611d62611d17565b5b6000611d7184828501611d38565b91505092915050565b600073ffffffffffffffffffffffffffffffffffffffff82169050919050565b6000611da582611d7a565b9050919050565b611db581611d9a565b8114611dc057600080fd5b50565b600081359050611dd281611dac565b92915050565b600060208284031215611dee57611ded611d17565b5b6000611dfc84828501611dc3565b91505092915050565b600060ff82169050919050565b611e1b81611e05565b82525050565b6000602082019050611e366000830184611e12565b92915050565b600080fd5b600080fd5b600080fd5b60008083601f840112611e6157611e60611e3c565b5b8235905067ffffffffffffffff811115611e7e57611e7d611e41565b5b602083019150836020820283011115611e9a57611e99611e46565b5b9250929050565b60008060208385031215611eb857611eb7611d17565b5b600083013567ffffffffffffffff811115611ed657611ed5611d1c565b5b611ee285828601611e4b565b92509250509250929050565b611ef781611d9a565b82525050565b6000602082019050611f126000830184611eee565b92915050565b60008115159050919050565b611f2d81611f18565b8114611f3857600080fd5b50565b600081359050611f4a81611f24565b92915050565b60008060408385031215611f6757611f66611d17565b5b6000611f7585828601611d38565b9250506020611f8685828601611f3b565b9150509250929050565b611f9981611f18565b82525050565b6000602082019050611fb46000830184611f90565b92915050565b60008060408385031215611fd157611fd0611d17565b5b6000611fdf85828601611dc3565b9250506020611ff085828601611dc3565b9150509250929050565b7f4e487b7100000000000000000000000000000000000000000000000000000000600052601160045260246000fd5b600061203482611ce3565b915061203f83611ce3565b925082820261204d81611ce3565b9150828204841483151761206457612063611ffa565b5b5092915050565b7f4e487b7100000000000000000000000000000000000000000000000000000000600052603260045260246000fd5b60006120a582611ce3565b91507fffffffffffffffffffffffffffffffffffffffffffffffffffffffffffffffff82036120d7576120d6611ffa565b5b600182019050919050565b60006120ed82611ce3565b91506120f883611ce3565b92508282019050808211156121105761210f611ffa565b5b92915050565b600061212182611ce3565b915061212c83611ce3565b925082820390508181111561214457612143611ffa565b5b92915050565b600060408201905061215f6000830185611eee565b61216c6020830184611ced565b9392505050565b60008151905061218281611f24565b92915050565b60006020828403121561219e5761219d611d17565b5b60006121ac84828501612173565b91505092915050565b600082825260208201905092915050565b7f4f776e61626c653a206e6577206f776e657220697320746865207a65726f206160008201527f6464726573730000000000000000000000000000000000000000000000000000602082015250565b60006122226026836121b5565b915061222d826121c6565b604082019050919050565b6000602082019050818103600083015261225181612215565b9050919050565b7f4f776e61626c653a2063616c6c6572206973206e6f7420746865206f776e6572600082015250565b600061228e6020836121b5565b915061229982612258565b602082019050919050565b600060208201905081810360008301526122bd81612281565b9050919050565b7f5265656e7472616e637947756172643a207265656e7472616e742063616c6c00600082015250565b60006122fa601f836121b5565b9150612305826122c4565b602082019050919050565b60006020820190508181036000830152612329816122ed565b9050919050565b7f4e487b7100000000000000000000000000000000000000000000000000000000600052601260045260246000fd5b600061236a82611ce3565b915061237583611ce3565b92508261238557612384612330565b5b828204905092915050565b7f5061757361626c653a2070617573656400000000000000000000000000000000600082015250565b60006123c66010836121b5565b91506123d182612390565b602082019050919050565b600060208201905081810360008301526123f5816123b9565b9050919050565b60008151905061240b81611d21565b92915050565b60006020828403121561242757612426611d17565b5b6000612435848285016123fc565b91505092915050565b7f5061757361626c653a206e6f7420706175736564000000000000000000000000600082015250565b60006124746014836121b5565b915061247f8261243e565b602082019050919050565b600060208201905081810360008301526124a381612467565b9050919050565b60006060820190506124bf6000830186611eee565b6124cc6020830185611eee565b6124d96040830184611ced565b949350505050565b7f5361666545524332303a204552433230206f7065726174696f6e20646964206e60008201527f6f74207375636365656400000000000000000000000000000000000000000000602082015250565b600061253d602a836121b5565b9150612548826124e1565b604082019050919050565b6000602082019050818103600083015261256c81612530565b9050919050565b7f416464726573733a20696e73756666696369656e742062616c616e636520666f60008201527f722063616c6c0000000000000000000000000000000000000000000000000000602082015250565b60006125cf6026836121b5565b91506125da82612573565b604082019050919050565b600060208201905081810360008301526125fe816125c2565b9050919050565b600081519050919050565b600081905092915050565b60005b8381101561263957808201518184015260208101905061261e565b60008484015250505050565b600061265082612605565b61265a8185612610565b935061266a81856020860161261b565b80840191505092915050565b60006126828284612645565b915081905092915050565b7f416464726573733a2063616c6c20746f206e6f6e2d636f6e7472616374000000600082015250565b60006126c3601d836121b5565b91506126ce8261268d565b602082019050919050565b600060208201905081810360008301526126f2816126b6565b9050919050565b600081519050919050565b6000601f19601f8301169050919050565b6000612720826126f9565b61272a81856121b5565b935061273a81856020860161261b565b61274381612704565b840191505092915050565b600060208201905081810360008301526127688184612715565b90509291505056fea26469706673582212209f25170e7179900c1a3d11f5c2d58937227fc0f57bf59ba1b0ed3465f873666a64736f6c63430008110033",
  "devdoc": {
    "kind": "dev",
    "methods": {
      "owner()": {
        "details": "Returns the address of the current owner."
      },
      "paused()": {
        "details": "Returns true if the contract is paused, and false otherwise."
      },
      "renounceOwnership()": {
        "details": "Leaves the contract without owner. It will not be possible to call `onlyOwner` functions. Can only be called by the current owner. NOTE: Renouncing ownership will leave the contract without an owner, thereby disabling any functionality that is only available to the owner."
      },
      "transferOwnership(address)": {
        "details": "Transfers ownership of the contract to a new account (`newOwner`). Can only be called by the current owner."
      }
    },
    "version": 1
  },
  "userdoc": {
    "kind": "user",
    "methods": {},
    "version": 1
  },
  "storageLayout": {
    "storage": [
      {
        "astId": 7,
        "contract": "contracts/DTECPrivateSale.sol:DTECPrivateSale",
        "label": "_owner",
        "offset": 0,
        "slot": "0",
        "type": "t_address"
      },
      {
        "astId": 130,
        "contract": "contracts/DTECPrivateSale.sol:DTECPrivateSale",
        "label": "_paused",
        "offset": 20,
        "slot": "0",
        "type": "t_bool"
      },
      {
        "astId": 231,
        "contract": "contracts/DTECPrivateSale.sol:DTECPrivateSale",
        "label": "_status",
        "offset": 0,
        "slot": "1",
        "type": "t_uint256"
      },
      {
        "astId": 1638,
        "contract": "contracts/DTECPrivateSale.sol:DTECPrivateSale",
        "label": "salePrice",
        "offset": 0,
        "slot": "2",
        "type": "t_uint256"
      },
      {
        "astId": 1642,
        "contract": "contracts/DTECPrivateSale.sol:DTECPrivateSale",
        "label": "mods",
        "offset": 0,
        "slot": "3",
        "type": "t_mapping(t_address,t_uint8)"
      },
      {
        "astId": 1646,
        "contract": "contracts/DTECPrivateSale.sol:DTECPrivateSale",
        "label": "allocations",
        "offset": 0,
        "slot": "4",
        "type": "t_mapping(t_address,t_uint256)"
      },
      {
        "astId": 1648,
        "contract": "contracts/DTECPrivateSale.sol:DTECPrivateSale",
        "label": "totalAllocated",
        "offset": 0,
        "slot": "5",
        "type": "t_uint256"
      },
      {
        "astId": 1650,
        "contract": "contracts/DTECPrivateSale.sol:DTECPrivateSale",
        "label": "lockerAddress",
        "offset": 0,
        "slot": "6",
        "type": "t_address"
      },
      {
        "astId": 1652,
        "contract": "contracts/DTECPrivateSale.sol:DTECPrivateSale",
        "label": "dtecTokenAddress",
        "offset": 0,
        "slot": "7",
        "type": "t_address"
      },
      {
        "astId": 1654,
        "contract": "contracts/DTECPrivateSale.sol:DTECPrivateSale",
        "label": "paymentReceiver",
        "offset": 0,
        "slot": "8",
        "type": "t_address"
      },
      {
        "astId": 1656,
        "contract": "contracts/DTECPrivateSale.sol:DTECPrivateSale",
        "label": "immediateReleaseRate",
        "offset": 0,
        "slot": "9",
        "type": "t_uint256"
      },
      {
        "astId": 1659,
        "contract": "contracts/DTECPrivateSale.sol:DTECPrivateSale",
        "label": "USDC",
        "offset": 0,
        "slot": "10",
        "type": "t_address"
      },
      {
        "astId": 1662,
        "contract": "contracts/DTECPrivateSale.sol:DTECPrivateSale",
        "label": "USDT",
        "offset": 0,
        "slot": "11",
        "type": "t_address"
      },
      {
        "astId": 1664,
        "contract": "contracts/DTECPrivateSale.sol:DTECPrivateSale",
        "label": "amountSold",
        "offset": 0,
        "slot": "12",
        "type": "t_uint256"
      },
      {
        "astId": 1283,
        "contract": "contracts/DTECPrivateSale.sol:DTECPrivateSale",
        "label": "wl",
        "offset": 0,
        "slot": "13",
        "type": "t_mapping(t_address,t_uint8)"
      },
      {
        "astId": 1287,
        "contract": "contracts/DTECPrivateSale.sol:DTECPrivateSale",
        "label": "addressToBoughtAmt",
        "offset": 0,
        "slot": "14",
        "type": "t_mapping(t_address,t_uint256)"
      }
    ],
    "types": {
      "t_address": {
        "encoding": "inplace",
        "label": "address",
        "numberOfBytes": "20"
      },
      "t_bool": {
        "encoding": "inplace",
        "label": "bool",
        "numberOfBytes": "1"
      },
      "t_mapping(t_address,t_uint256)": {
        "encoding": "mapping",
        "key": "t_address",
        "label": "mapping(address => uint256)",
        "numberOfBytes": "32",
        "value": "t_uint256"
      },
      "t_mapping(t_address,t_uint8)": {
        "encoding": "mapping",
        "key": "t_address",
        "label": "mapping(address => uint8)",
        "numberOfBytes": "32",
        "value": "t_uint8"
      },
      "t_uint256": {
        "encoding": "inplace",
        "label": "uint256",
        "numberOfBytes": "32"
      },
      "t_uint8": {
        "encoding": "inplace",
        "label": "uint8",
        "numberOfBytes": "1"
      }
    }
  }
}