{
  "address": "0xE8F6408a38b2Fbfc4Cf072ecC6efE195476bf883",
  "abi": [
    {
      "inputs": [],
      "stateMutability": "nonpayable",
      "type": "constructor"
    },
    {
      "anonymous": false,
      "inputs": [
        {
          "indexed": true,
          "internalType": "address",
          "name": "owner",
          "type": "address"
        },
        {
          "indexed": true,
          "internalType": "address",
          "name": "spender",
          "type": "address"
        },
        {
          "indexed": false,
          "internalType": "uint256",
          "name": "value",
          "type": "uint256"
        }
      ],
      "name": "Approval",
      "type": "event"
    },
    {
      "anonymous": false,
      "inputs": [
        {
          "indexed": true,
          "internalType": "address",
          "name": "from",
          "type": "address"
        },
        {
          "indexed": true,
          "internalType": "address",
          "name": "to",
          "type": "address"
        },
        {
          "indexed": false,
          "internalType": "uint256",
          "name": "value",
          "type": "uint256"
        }
      ],
      "name": "Transfer",
      "type": "event"
    },
    {
      "inputs": [],
      "name": "MAX_SUPPLY",
      "outputs": [
        {
          "internalType": "uint256",
          "name": "",
          "type": "uint256"
        }
      ],
      "stateMutability": "view",
      "type": "function"
    },
    {
      "inputs": [
        {
          "internalType": "address",
          "name": "owner",
          "type": "address"
        },
        {
          "internalType": "address",
          "name": "spender",
          "type": "address"
        }
      ],
      "name": "allowance",
      "outputs": [
        {
          "internalType": "uint256",
          "name": "",
          "type": "uint256"
        }
      ],
      "stateMutability": "view",
      "type": "function"
    },
    {
      "inputs": [
        {
          "internalType": "address",
          "name": "spender",
          "type": "address"
        },
        {
          "internalType": "uint256",
          "name": "amount",
          "type": "uint256"
        }
      ],
      "name": "approve",
      "outputs": [
        {
          "internalType": "bool",
          "name": "",
          "type": "bool"
        }
      ],
      "stateMutability": "nonpayable",
      "type": "function"
    },
    {
      "inputs": [
        {
          "internalType": "address",
          "name": "account",
          "type": "address"
        }
      ],
      "name": "balanceOf",
      "outputs": [
        {
          "internalType": "uint256",
          "name": "",
          "type": "uint256"
        }
      ],
      "stateMutability": "view",
      "type": "function"
    },
    {
      "inputs": [
        {
          "internalType": "uint256",
          "name": "value",
          "type": "uint256"
        }
      ],
      "name": "burn",
      "outputs": [],
      "stateMutability": "nonpayable",
      "type": "function"
    },
    {
      "inputs": [],
      "name": "decimals",
      "outputs": [
        {
          "internalType": "uint8",
          "name": "",
          "type": "uint8"
        }
      ],
      "stateMutability": "view",
      "type": "function"
    },
    {
      "inputs": [
        {
          "internalType": "address",
          "name": "spender",
          "type": "address"
        },
        {
          "internalType": "uint256",
          "name": "subtractedValue",
          "type": "uint256"
        }
      ],
      "name": "decreaseAllowance",
      "outputs": [
        {
          "internalType": "bool",
          "name": "",
          "type": "bool"
        }
      ],
      "stateMutability": "nonpayable",
      "type": "function"
    },
    {
      "inputs": [
        {
          "internalType": "address",
          "name": "spender",
          "type": "address"
        },
        {
          "internalType": "uint256",
          "name": "addedValue",
          "type": "uint256"
        }
      ],
      "name": "increaseAllowance",
      "outputs": [
        {
          "internalType": "bool",
          "name": "",
          "type": "bool"
        }
      ],
      "stateMutability": "nonpayable",
      "type": "function"
    },
    {
      "inputs": [],
      "name": "name",
      "outputs": [
        {
          "internalType": "string",
          "name": "",
          "type": "string"
        }
      ],
      "stateMutability": "view",
      "type": "function"
    },
    {
      "inputs": [],
      "name": "symbol",
      "outputs": [
        {
          "internalType": "string",
          "name": "",
          "type": "string"
        }
      ],
      "stateMutability": "view",
      "type": "function"
    },
    {
      "inputs": [],
      "name": "totalSupply",
      "outputs": [
        {
          "internalType": "uint256",
          "name": "",
          "type": "uint256"
        }
      ],
      "stateMutability": "view",
      "type": "function"
    },
    {
      "inputs": [
        {
          "internalType": "address",
          "name": "to",
          "type": "address"
        },
        {
          "internalType": "uint256",
          "name": "amount",
          "type": "uint256"
        }
      ],
      "name": "transfer",
      "outputs": [
        {
          "internalType": "bool",
          "name": "",
          "type": "bool"
        }
      ],
      "stateMutability": "nonpayable",
      "type": "function"
    },
    {
      "inputs": [
        {
          "internalType": "address",
          "name": "from",
          "type": "address"
        },
        {
          "internalType": "address",
          "name": "to",
          "type": "address"
        },
        {
          "internalType": "uint256",
          "name": "amount",
          "type": "uint256"
        }
      ],
      "name": "transferFrom",
      "outputs": [
        {
          "internalType": "bool",
          "name": "",
          "type": "bool"
        }
      ],
      "stateMutability": "nonpayable",
      "type": "function"
    }
  ],
  "transactionHash": "0xc955d0fc37853dfdcf715ea84abf57aee67cd23572acdf112cd06a0f8dce1f04",
  "args": [],
  "numDeployments": 1,
  "solcInputHash": "1d86c327225b057826bee500b31f6f4c",
  "bytecode": "0x60806040526b02e87669c308736a040000006005553480156200002157600080fd5b506040518060400160405280600481526020017f44544543000000000000000000000000000000000000000000000000000000008152506040518060400160405280600481526020017f445445430000000000000000000000000000000000000000000000000000000081525081600390816200009f9190620004bf565b508060049081620000b19190620004bf565b505050620000c833600554620000ce60201b60201c565b620006c1565b600073ffffffffffffffffffffffffffffffffffffffff168273ffffffffffffffffffffffffffffffffffffffff160362000140576040517f08c379a0000000000000000000000000000000000000000000000000000000008152600401620001379062000607565b60405180910390fd5b62000154600083836200023b60201b60201c565b806002600082825462000168919062000658565b92505081905550806000808473ffffffffffffffffffffffffffffffffffffffff1673ffffffffffffffffffffffffffffffffffffffff168152602001908152602001600020600082825401925050819055508173ffffffffffffffffffffffffffffffffffffffff16600073ffffffffffffffffffffffffffffffffffffffff167fddf252ad1be2c89b69c2b068fc378daa952ba7f163c4a11628f55a4df523b3ef836040516200021b9190620006a4565b60405180910390a362000237600083836200024060201b60201c565b5050565b505050565b505050565b600081519050919050565b7f4e487b7100000000000000000000000000000000000000000000000000000000600052604160045260246000fd5b7f4e487b7100000000000000000000000000000000000000000000000000000000600052602260045260246000fd5b60006002820490506001821680620002c757607f821691505b602082108103620002dd57620002dc6200027f565b5b50919050565b60008190508160005260206000209050919050565b60006020601f8301049050919050565b600082821b905092915050565b600060088302620003477fffffffffffffffffffffffffffffffffffffffffffffffffffffffffffffffff8262000308565b62000353868362000308565b95508019841693508086168417925050509392505050565b6000819050919050565b6000819050919050565b6000620003a06200039a62000394846200036b565b62000375565b6200036b565b9050919050565b6000819050919050565b620003bc836200037f565b620003d4620003cb82620003a7565b84845462000315565b825550505050565b600090565b620003eb620003dc565b620003f8818484620003b1565b505050565b5b81811015620004205762000414600082620003e1565b600181019050620003fe565b5050565b601f8211156200046f576200043981620002e3565b6200044484620002f8565b8101602085101562000454578190505b6200046c6200046385620002f8565b830182620003fd565b50505b505050565b600082821c905092915050565b6000620004946000198460080262000474565b1980831691505092915050565b6000620004af838362000481565b9150826002028217905092915050565b620004ca8262000245565b67ffffffffffffffff811115620004e657620004e562000250565b5b620004f28254620002ae565b620004ff82828562000424565b600060209050601f83116001811462000537576000841562000522578287015190505b6200052e8582620004a1565b8655506200059e565b601f1984166200054786620002e3565b60005b8281101562000571578489015182556001820191506020850194506020810190506200054a565b868310156200059157848901516200058d601f89168262000481565b8355505b6001600288020188555050505b505050505050565b600082825260208201905092915050565b7f45524332303a206d696e7420746f20746865207a65726f206164647265737300600082015250565b6000620005ef601f83620005a6565b9150620005fc82620005b7565b602082019050919050565b600060208201905081810360008301526200062281620005e0565b9050919050565b7f4e487b7100000000000000000000000000000000000000000000000000000000600052601160045260246000fd5b600062000665826200036b565b915062000672836200036b565b92508282019050808211156200068d576200068c62000629565b5b92915050565b6200069e816200036b565b82525050565b6000602082019050620006bb600083018462000693565b92915050565b6115c080620006d16000396000f3fe608060405234801561001057600080fd5b50600436106100cf5760003560e01c8063395093511161008c57806395d89b411161006657806395d89b4114610228578063a457c2d714610246578063a9059cbb14610276578063dd62ed3e146102a6576100cf565b806339509351146101ac57806342966c68146101dc57806370a08231146101f8576100cf565b806306fdde03146100d4578063095ea7b3146100f257806318160ddd1461012257806323b872dd14610140578063313ce5671461017057806332cb6b0c1461018e575b600080fd5b6100dc6102d6565b6040516100e99190610d4c565b60405180910390f35b61010c60048036038101906101079190610e07565b610368565b6040516101199190610e62565b60405180910390f35b61012a61038b565b6040516101379190610e8c565b60405180910390f35b61015a60048036038101906101559190610ea7565b610395565b6040516101679190610e62565b60405180910390f35b6101786103c4565b6040516101859190610f16565b60405180910390f35b6101966103cd565b6040516101a39190610e8c565b60405180910390f35b6101c660048036038101906101c19190610e07565b6103d3565b6040516101d39190610e62565b60405180910390f35b6101f660048036038101906101f19190610f31565b61040a565b005b610212600480360381019061020d9190610f5e565b610417565b60405161021f9190610e8c565b60405180910390f35b61023061045f565b60405161023d9190610d4c565b60405180910390f35b610260600480360381019061025b9190610e07565b6104f1565b60405161026d9190610e62565b60405180910390f35b610290600480360381019061028b9190610e07565b610568565b60405161029d9190610e62565b60405180910390f35b6102c060048036038101906102bb9190610f8b565b61058b565b6040516102cd9190610e8c565b60405180910390f35b6060600380546102e590610ffa565b80601f016020809104026020016040519081016040528092919081815260200182805461031190610ffa565b801561035e5780601f106103335761010080835404028352916020019161035e565b820191906000526020600020905b81548152906001019060200180831161034157829003601f168201915b5050505050905090565b600080610373610612565b905061038081858561061a565b600191505092915050565b6000600254905090565b6000806103a0610612565b90506103ad8582856107e3565b6103b885858561086f565b60019150509392505050565b60006012905090565b60055481565b6000806103de610612565b90506103ff8185856103f0858961058b565b6103fa919061105a565b61061a565b600191505092915050565b6104143382610ae5565b50565b60008060008373ffffffffffffffffffffffffffffffffffffffff1673ffffffffffffffffffffffffffffffffffffffff168152602001908152602001600020549050919050565b60606004805461046e90610ffa565b80601f016020809104026020016040519081016040528092919081815260200182805461049a90610ffa565b80156104e75780601f106104bc576101008083540402835291602001916104e7565b820191906000526020600020905b8154815290600101906020018083116104ca57829003601f168201915b5050505050905090565b6000806104fc610612565b9050600061050a828661058b565b90508381101561054f576040517f08c379a000000000000000000000000000000000000000000000000000000000815260040161054690611100565b60405180910390fd5b61055c828686840361061a565b60019250505092915050565b600080610573610612565b905061058081858561086f565b600191505092915050565b6000600160008473ffffffffffffffffffffffffffffffffffffffff1673ffffffffffffffffffffffffffffffffffffffff16815260200190815260200160002060008373ffffffffffffffffffffffffffffffffffffffff1673ffffffffffffffffffffffffffffffffffffffff16815260200190815260200160002054905092915050565b600033905090565b600073ffffffffffffffffffffffffffffffffffffffff168373ffffffffffffffffffffffffffffffffffffffff1603610689576040517f08c379a000000000000000000000000000000000000000000000000000000000815260040161068090611192565b60405180910390fd5b600073ffffffffffffffffffffffffffffffffffffffff168273ffffffffffffffffffffffffffffffffffffffff16036106f8576040517f08c379a00000000000000000000000000000000000000000000000000000000081526004016106ef90611224565b60405180910390fd5b80600160008573ffffffffffffffffffffffffffffffffffffffff1673ffffffffffffffffffffffffffffffffffffffff16815260200190815260200160002060008473ffffffffffffffffffffffffffffffffffffffff1673ffffffffffffffffffffffffffffffffffffffff168152602001908152602001600020819055508173ffffffffffffffffffffffffffffffffffffffff168373ffffffffffffffffffffffffffffffffffffffff167f8c5be1e5ebec7d5bd14f71427d1e84f3dd0314c0f7b2291e5b200ac8c7c3b925836040516107d69190610e8c565b60405180910390a3505050565b60006107ef848461058b565b90507fffffffffffffffffffffffffffffffffffffffffffffffffffffffffffffffff8114610869578181101561085b576040517f08c379a000000000000000000000000000000000000000000000000000000000815260040161085290611290565b60405180910390fd5b610868848484840361061a565b5b50505050565b600073ffffffffffffffffffffffffffffffffffffffff168373ffffffffffffffffffffffffffffffffffffffff16036108de576040517f08c379a00000000000000000000000000000000000000000000000000000000081526004016108d590611322565b60405180910390fd5b600073ffffffffffffffffffffffffffffffffffffffff168273ffffffffffffffffffffffffffffffffffffffff160361094d576040517f08c379a0000000000000000000000000000000000000000000000000000000008152600401610944906113b4565b60405180910390fd5b610958838383610cb2565b60008060008573ffffffffffffffffffffffffffffffffffffffff1673ffffffffffffffffffffffffffffffffffffffff168152602001908152602001600020549050818110156109de576040517f08c379a00000000000000000000000000000000000000000000000000000000081526004016109d590611446565b60405180910390fd5b8181036000808673ffffffffffffffffffffffffffffffffffffffff1673ffffffffffffffffffffffffffffffffffffffff16815260200190815260200160002081905550816000808573ffffffffffffffffffffffffffffffffffffffff1673ffffffffffffffffffffffffffffffffffffffff168152602001908152602001600020600082825401925050819055508273ffffffffffffffffffffffffffffffffffffffff168473ffffffffffffffffffffffffffffffffffffffff167fddf252ad1be2c89b69c2b068fc378daa952ba7f163c4a11628f55a4df523b3ef84604051610acc9190610e8c565b60405180910390a3610adf848484610cb7565b50505050565b600073ffffffffffffffffffffffffffffffffffffffff168273ffffffffffffffffffffffffffffffffffffffff1603610b54576040517f08c379a0000000000000000000000000000000000000000000000000000000008152600401610b4b906114d8565b60405180910390fd5b610b6082600083610cb2565b60008060008473ffffffffffffffffffffffffffffffffffffffff1673ffffffffffffffffffffffffffffffffffffffff16815260200190815260200160002054905081811015610be6576040517f08c379a0000000000000000000000000000000000000000000000000000000008152600401610bdd9061156a565b60405180910390fd5b8181036000808573ffffffffffffffffffffffffffffffffffffffff1673ffffffffffffffffffffffffffffffffffffffff1681526020019081526020016000208190555081600260008282540392505081905550600073ffffffffffffffffffffffffffffffffffffffff168373ffffffffffffffffffffffffffffffffffffffff167fddf252ad1be2c89b69c2b068fc378daa952ba7f163c4a11628f55a4df523b3ef84604051610c999190610e8c565b60405180910390a3610cad83600084610cb7565b505050565b505050565b505050565b600081519050919050565b600082825260208201905092915050565b60005b83811015610cf6578082015181840152602081019050610cdb565b60008484015250505050565b6000601f19601f8301169050919050565b6000610d1e82610cbc565b610d288185610cc7565b9350610d38818560208601610cd8565b610d4181610d02565b840191505092915050565b60006020820190508181036000830152610d668184610d13565b905092915050565b600080fd5b600073ffffffffffffffffffffffffffffffffffffffff82169050919050565b6000610d9e82610d73565b9050919050565b610dae81610d93565b8114610db957600080fd5b50565b600081359050610dcb81610da5565b92915050565b6000819050919050565b610de481610dd1565b8114610def57600080fd5b50565b600081359050610e0181610ddb565b92915050565b60008060408385031215610e1e57610e1d610d6e565b5b6000610e2c85828601610dbc565b9250506020610e3d85828601610df2565b9150509250929050565b60008115159050919050565b610e5c81610e47565b82525050565b6000602082019050610e776000830184610e53565b92915050565b610e8681610dd1565b82525050565b6000602082019050610ea16000830184610e7d565b92915050565b600080600060608486031215610ec057610ebf610d6e565b5b6000610ece86828701610dbc565b9350506020610edf86828701610dbc565b9250506040610ef086828701610df2565b9150509250925092565b600060ff82169050919050565b610f1081610efa565b82525050565b6000602082019050610f2b6000830184610f07565b92915050565b600060208284031215610f4757610f46610d6e565b5b6000610f5584828501610df2565b91505092915050565b600060208284031215610f7457610f73610d6e565b5b6000610f8284828501610dbc565b91505092915050565b60008060408385031215610fa257610fa1610d6e565b5b6000610fb085828601610dbc565b9250506020610fc185828601610dbc565b9150509250929050565b7f4e487b7100000000000000000000000000000000000000000000000000000000600052602260045260246000fd5b6000600282049050600182168061101257607f821691505b60208210810361102557611024610fcb565b5b50919050565b7f4e487b7100000000000000000000000000000000000000000000000000000000600052601160045260246000fd5b600061106582610dd1565b915061107083610dd1565b92508282019050808211156110885761108761102b565b5b92915050565b7f45524332303a2064656372656173656420616c6c6f77616e63652062656c6f7760008201527f207a65726f000000000000000000000000000000000000000000000000000000602082015250565b60006110ea602583610cc7565b91506110f58261108e565b604082019050919050565b60006020820190508181036000830152611119816110dd565b9050919050565b7f45524332303a20617070726f76652066726f6d20746865207a65726f2061646460008201527f7265737300000000000000000000000000000000000000000000000000000000602082015250565b600061117c602483610cc7565b915061118782611120565b604082019050919050565b600060208201905081810360008301526111ab8161116f565b9050919050565b7f45524332303a20617070726f766520746f20746865207a65726f20616464726560008201527f7373000000000000000000000000000000000000000000000000000000000000602082015250565b600061120e602283610cc7565b9150611219826111b2565b604082019050919050565b6000602082019050818103600083015261123d81611201565b9050919050565b7f45524332303a20696e73756666696369656e7420616c6c6f77616e6365000000600082015250565b600061127a601d83610cc7565b915061128582611244565b602082019050919050565b600060208201905081810360008301526112a98161126d565b9050919050565b7f45524332303a207472616e736665722066726f6d20746865207a65726f20616460008201527f6472657373000000000000000000000000000000000000000000000000000000602082015250565b600061130c602583610cc7565b9150611317826112b0565b604082019050919050565b6000602082019050818103600083015261133b816112ff565b9050919050565b7f45524332303a207472616e7366657220746f20746865207a65726f206164647260008201527f6573730000000000000000000000000000000000000000000000000000000000602082015250565b600061139e602383610cc7565b91506113a982611342565b604082019050919050565b600060208201905081810360008301526113cd81611391565b9050919050565b7f45524332303a207472616e7366657220616d6f756e742065786365656473206260008201527f616c616e63650000000000000000000000000000000000000000000000000000602082015250565b6000611430602683610cc7565b915061143b826113d4565b604082019050919050565b6000602082019050818103600083015261145f81611423565b9050919050565b7f45524332303a206275726e2066726f6d20746865207a65726f2061646472657360008201527f7300000000000000000000000000000000000000000000000000000000000000602082015250565b60006114c2602183610cc7565b91506114cd82611466565b604082019050919050565b600060208201905081810360008301526114f1816114b5565b9050919050565b7f45524332303a206275726e20616d6f756e7420657863656564732062616c616e60008201527f6365000000000000000000000000000000000000000000000000000000000000602082015250565b6000611554602283610cc7565b915061155f826114f8565b604082019050919050565b6000602082019050818103600083015261158381611547565b905091905056fea264697066735822122081420b7d12315abedac022b23b8dccdaffe7bd6ee97907d388eeccb2b593a4d464736f6c63430008110033",
  "devdoc": {
    "kind": "dev",
    "methods": {
      "allowance(address,address)": {
        "details": "See {IERC20-allowance}."
      },
      "approve(address,uint256)": {
        "details": "See {IERC20-approve}. NOTE: If `amount` is the maximum `uint256`, the allowance is not updated on `transferFrom`. This is semantically equivalent to an infinite approval. Requirements: - `spender` cannot be the zero address."
      },
      "balanceOf(address)": {
        "details": "See {IERC20-balanceOf}."
      },
      "decimals()": {
        "details": "Returns the number of decimals used to get its user representation. For example, if `decimals` equals `2`, a balance of `505` tokens should be displayed to a user as `5.05` (`505 / 10 ** 2`). Tokens usually opt for a value of 18, imitating the relationship between Ether and Wei. This is the default value returned by this function, unless it's overridden. NOTE: This information is only used for _display_ purposes: it in no way affects any of the arithmetic of the contract, including {IERC20-balanceOf} and {IERC20-transfer}."
      },
      "decreaseAllowance(address,uint256)": {
        "details": "Atomically decreases the allowance granted to `spender` by the caller. This is an alternative to {approve} that can be used as a mitigation for problems described in {IERC20-approve}. Emits an {Approval} event indicating the updated allowance. Requirements: - `spender` cannot be the zero address. - `spender` must have allowance for the caller of at least `subtractedValue`."
      },
      "increaseAllowance(address,uint256)": {
        "details": "Atomically increases the allowance granted to `spender` by the caller. This is an alternative to {approve} that can be used as a mitigation for problems described in {IERC20-approve}. Emits an {Approval} event indicating the updated allowance. Requirements: - `spender` cannot be the zero address."
      },
      "name()": {
        "details": "Returns the name of the token."
      },
      "symbol()": {
        "details": "Returns the symbol of the token, usually a shorter version of the name."
      },
      "totalSupply()": {
        "details": "See {IERC20-totalSupply}."
      },
      "transfer(address,uint256)": {
        "details": "See {IERC20-transfer}. Requirements: - `to` cannot be the zero address. - the caller must have a balance of at least `amount`."
      },
      "transferFrom(address,address,uint256)": {
        "details": "See {IERC20-transferFrom}. Emits an {Approval} event indicating the updated allowance. This is not required by the EIP. See the note at the beginning of {ERC20}. NOTE: Does not update the allowance if the current allowance is the maximum `uint256`. Requirements: - `from` and `to` cannot be the zero address. - `from` must have a balance of at least `amount`. - the caller must have allowance for ``from``'s tokens of at least `amount`."
      }
    },
    "version": 1
  },
  "userdoc": {
    "kind": "user",
    "methods": {},
    "version": 1
  },
  "storageLayout": {
    "storage": [
      {
        "astId": 301,
        "contract": "contracts/DTEC.sol:DTEC",
        "label": "_balances",
        "offset": 0,
        "slot": "0",
        "type": "t_mapping(t_address,t_uint256)"
      },
      {
        "astId": 307,
        "contract": "contracts/DTEC.sol:DTEC",
        "label": "_allowances",
        "offset": 0,
        "slot": "1",
        "type": "t_mapping(t_address,t_mapping(t_address,t_uint256))"
      },
      {
        "astId": 309,
        "contract": "contracts/DTEC.sol:DTEC",
        "label": "_totalSupply",
        "offset": 0,
        "slot": "2",
        "type": "t_uint256"
      },
      {
        "astId": 311,
        "contract": "contracts/DTEC.sol:DTEC",
        "label": "_name",
        "offset": 0,
        "slot": "3",
        "type": "t_string_storage"
      },
      {
        "astId": 313,
        "contract": "contracts/DTEC.sol:DTEC",
        "label": "_symbol",
        "offset": 0,
        "slot": "4",
        "type": "t_string_storage"
      },
      {
        "astId": 1752,
        "contract": "contracts/DTEC.sol:DTEC",
        "label": "MAX_SUPPLY",
        "offset": 0,
        "slot": "5",
        "type": "t_uint256"
      }
    ],
    "types": {
      "t_address": {
        "encoding": "inplace",
        "label": "address",
        "numberOfBytes": "20"
      },
      "t_mapping(t_address,t_mapping(t_address,t_uint256))": {
        "encoding": "mapping",
        "key": "t_address",
        "label": "mapping(address => mapping(address => uint256))",
        "numberOfBytes": "32",
        "value": "t_mapping(t_address,t_uint256)"
      },
      "t_mapping(t_address,t_uint256)": {
        "encoding": "mapping",
        "key": "t_address",
        "label": "mapping(address => uint256)",
        "numberOfBytes": "32",
        "value": "t_uint256"
      },
      "t_string_storage": {
        "encoding": "bytes",
        "label": "string",
        "numberOfBytes": "32"
      },
      "t_uint256": {
        "encoding": "inplace",
        "label": "uint256",
        "numberOfBytes": "32"
      }
    }
  }
}