{
  "address": "0xE41C5f2042c0CB74A612677214357e50F1942865",
  "abi": [
    {
      "inputs": [
        {
          "internalType": "address",
          "name": "_dtecAddress",
          "type": "address"
        }
      ],
      "stateMutability": "nonpayable",
      "type": "constructor"
    },
    {
      "inputs": [],
      "name": "NothingToClaim",
      "type": "error"
    },
    {
      "inputs": [],
      "name": "OutOfExpectedRange",
      "type": "error"
    },
    {
      "inputs": [],
      "name": "Unauthorized",
      "type": "error"
    },
    {
      "anonymous": false,
      "inputs": [
        {
          "indexed": true,
          "internalType": "address",
          "name": "previousOwner",
          "type": "address"
        },
        {
          "indexed": true,
          "internalType": "address",
          "name": "newOwner",
          "type": "address"
        }
      ],
      "name": "OwnershipTransferred",
      "type": "event"
    },
    {
      "inputs": [],
      "name": "claim",
      "outputs": [],
      "stateMutability": "nonpayable",
      "type": "function"
    },
    {
      "inputs": [],
      "name": "dtecTokenAddress",
      "outputs": [
        {
          "internalType": "address",
          "name": "",
          "type": "address"
        }
      ],
      "stateMutability": "view",
      "type": "function"
    },
    {
      "inputs": [
        {
          "internalType": "address",
          "name": "_user",
          "type": "address"
        }
      ],
      "name": "getClaimable",
      "outputs": [
        {
          "internalType": "uint256",
          "name": "",
          "type": "uint256"
        }
      ],
      "stateMutability": "view",
      "type": "function"
    },
    {
      "inputs": [],
      "name": "lockStartTime",
      "outputs": [
        {
          "internalType": "uint256",
          "name": "",
          "type": "uint256"
        }
      ],
      "stateMutability": "view",
      "type": "function"
    },
    {
      "inputs": [
        {
          "internalType": "address",
          "name": "_user",
          "type": "address"
        },
        {
          "internalType": "uint256",
          "name": "_amt",
          "type": "uint256"
        }
      ],
      "name": "lockTokens",
      "outputs": [],
      "stateMutability": "nonpayable",
      "type": "function"
    },
    {
      "inputs": [],
      "name": "owner",
      "outputs": [
        {
          "internalType": "address",
          "name": "",
          "type": "address"
        }
      ],
      "stateMutability": "view",
      "type": "function"
    },
    {
      "inputs": [],
      "name": "period",
      "outputs": [
        {
          "internalType": "uint256",
          "name": "",
          "type": "uint256"
        }
      ],
      "stateMutability": "view",
      "type": "function"
    },
    {
      "inputs": [],
      "name": "releaseRate",
      "outputs": [
        {
          "internalType": "uint256",
          "name": "",
          "type": "uint256"
        }
      ],
      "stateMutability": "view",
      "type": "function"
    },
    {
      "inputs": [],
      "name": "renounceOwnership",
      "outputs": [],
      "stateMutability": "nonpayable",
      "type": "function"
    },
    {
      "inputs": [
        {
          "internalType": "uint256",
          "name": "_period",
          "type": "uint256"
        }
      ],
      "name": "setPeriod",
      "outputs": [],
      "stateMutability": "nonpayable",
      "type": "function"
    },
    {
      "inputs": [
        {
          "internalType": "uint256",
          "name": "_startTime",
          "type": "uint256"
        },
        {
          "internalType": "uint256",
          "name": "_rate",
          "type": "uint256"
        }
      ],
      "name": "setReleaseInfo",
      "outputs": [],
      "stateMutability": "nonpayable",
      "type": "function"
    },
    {
      "inputs": [
        {
          "internalType": "address",
          "name": "_locker",
          "type": "address"
        }
      ],
      "name": "setTokenLocker",
      "outputs": [],
      "stateMutability": "nonpayable",
      "type": "function"
    },
    {
      "inputs": [],
      "name": "tokenLocker",
      "outputs": [
        {
          "internalType": "address",
          "name": "",
          "type": "address"
        }
      ],
      "stateMutability": "view",
      "type": "function"
    },
    {
      "inputs": [
        {
          "internalType": "address",
          "name": "newOwner",
          "type": "address"
        }
      ],
      "name": "transferOwnership",
      "outputs": [],
      "stateMutability": "nonpayable",
      "type": "function"
    },
    {
      "inputs": [
        {
          "internalType": "address",
          "name": "",
          "type": "address"
        }
      ],
      "name": "userToLockInfo",
      "outputs": [
        {
          "internalType": "uint256",
          "name": "totalAmount",
          "type": "uint256"
        },
        {
          "internalType": "uint256",
          "name": "totalClaimed",
          "type": "uint256"
        }
      ],
      "stateMutability": "view",
      "type": "function"
    }
  ],
  "transactionHash": "0x193181410d638ec8239b9d2a9a5be2350475777ecc506e1c2e26c7edb55d413f",
  "args": [
    "0xE8F6408a38b2Fbfc4Cf072ecC6efE195476bf883"
  ],
  "numDeployments": 1,
  "solcInputHash": "efb57a8e81a0580adfa4891be6d48356",
  "bytecode": "0x608060405262278d006005553480156200001857600080fd5b506040516200114a3803806200114a83398181016040528101906200003e9190620001e5565b806200005f62000053620000af60201b60201c565b620000b760201b60201c565b6001808190555080600360006101000a81548173ffffffffffffffffffffffffffffffffffffffff021916908373ffffffffffffffffffffffffffffffffffffffff160217905550505062000217565b600033905090565b60008060009054906101000a900473ffffffffffffffffffffffffffffffffffffffff169050816000806101000a81548173ffffffffffffffffffffffffffffffffffffffff021916908373ffffffffffffffffffffffffffffffffffffffff1602179055508173ffffffffffffffffffffffffffffffffffffffff168173ffffffffffffffffffffffffffffffffffffffff167f8be0079c531659141344cd1fd0a4f28419497f9722a3daafe3b4186f6b6457e060405160405180910390a35050565b600080fd5b600073ffffffffffffffffffffffffffffffffffffffff82169050919050565b6000620001ad8262000180565b9050919050565b620001bf81620001a0565b8114620001cb57600080fd5b50565b600081519050620001df81620001b4565b92915050565b600060208284031215620001fe57620001fd6200017b565b5b60006200020e84828501620001ce565b91505092915050565b610f2380620002276000396000f3fe608060405234801561001057600080fd5b50600436106100f55760003560e01c8063a583024b11610097578063e3016d8811610066578063e3016d8814610228578063eca78bed14610259578063ef78d4fd14610275578063f2fde38b14610293576100f5565b8063a583024b146101a0578063a7032998146101d0578063a80bf3e6146101ee578063b1c255861461020c576100f5565b80634e71d92d116100d35780634e71d92d1461015057806362c7fa761461015a578063715018a6146101785780638da5cb5b14610182576100f5565b80630f3a9f65146100fa5780632e64d82c14610116578063498ea0c014610132575b600080fd5b610114600480360381019061010f91906109f6565b6102af565b005b610130600480360381019061012b9190610a81565b6102fe565b005b61013a61034a565b6040516101479190610abd565b60405180910390f35b610158610370565b005b6101626104cd565b60405161016f9190610ae7565b60405180910390f35b6101806104d3565b005b61018a6104e7565b6040516101979190610abd565b60405180910390f35b6101ba60048036038101906101b59190610a81565b610510565b6040516101c79190610ae7565b60405180910390f35b6101d861063c565b6040516101e59190610ae7565b60405180910390f35b6101f6610642565b6040516102039190610abd565b60405180910390f35b61022660048036038101906102219190610b02565b610668565b005b610242600480360381019061023d9190610a81565b610752565b604051610250929190610b42565b60405180910390f35b610273600480360381019061026e9190610b6b565b610776565b005b61027d610790565b60405161028a9190610ae7565b60405180910390f35b6102ad60048036038101906102a89190610a81565b610796565b005b6102b7610819565b62278d008111156102f4576040517feb6957cf00000000000000000000000000000000000000000000000000000000815260040160405180910390fd5b8060058190555050565b610306610819565b80600460006101000a81548173ffffffffffffffffffffffffffffffffffffffff021916908373ffffffffffffffffffffffffffffffffffffffff16021790555050565b600360009054906101000a900473ffffffffffffffffffffffffffffffffffffffff1681565b610378610897565b600061038333610510565b9050600081036103bf576040517f969bf72800000000000000000000000000000000000000000000000000000000815260040160405180910390fd5b6000600260003373ffffffffffffffffffffffffffffffffffffffff1673ffffffffffffffffffffffffffffffffffffffff16815260200190815260200160002090508181600101546104129190610bda565b81600101819055506000600360009054906101000a900473ffffffffffffffffffffffffffffffffffffffff1690508073ffffffffffffffffffffffffffffffffffffffff1663a9059cbb33856040518363ffffffff1660e01b815260040161047c929190610c0e565b6020604051808303816000875af115801561049b573d6000803e3d6000fd5b505050506040513d601f19601f820116820180604052508101906104bf9190610c6f565b505050506104cb6108e6565b565b60075481565b6104db610819565b6104e560006108ef565b565b60008060009054906101000a900473ffffffffffffffffffffffffffffffffffffffff16905090565b600080600260008473ffffffffffffffffffffffffffffffffffffffff1673ffffffffffffffffffffffffffffffffffffffff16815260200190815260200160002060405180604001604052908160008201548152602001600182015481525050905080600001518160200151148061058b57506000600754145b80610597575060075442105b156105a6576000915050610637565b6000600754426105b69190610c9c565b90506000600554826105c89190610cff565b9050600081036105de5760009350505050610637565b60006127108260065486600001516105f69190610d30565b6106009190610d30565b61060a9190610cff565b9050836000015181111561062057836000015190505b8360200151816106309190610c9c565b9450505050505b919050565b60065481565b600460009054906101000a900473ffffffffffffffffffffffffffffffffffffffff1681565b600460009054906101000a900473ffffffffffffffffffffffffffffffffffffffff1673ffffffffffffffffffffffffffffffffffffffff163373ffffffffffffffffffffffffffffffffffffffff16146106ef576040517f82b4290000000000000000000000000000000000000000000000000000000000815260040160405180910390fd5b6000600260008473ffffffffffffffffffffffffffffffffffffffff1673ffffffffffffffffffffffffffffffffffffffff1681526020019081526020016000209050818160000160008282546107469190610bda565b92505081905550505050565b60026020528060005260406000206000915090508060000154908060010154905082565b61077e610819565b81600781905550806006819055505050565b60055481565b61079e610819565b600073ffffffffffffffffffffffffffffffffffffffff168173ffffffffffffffffffffffffffffffffffffffff160361080d576040517f08c379a000000000000000000000000000000000000000000000000000000000815260040161080490610df5565b60405180910390fd5b610816816108ef565b50565b6108216109b3565b73ffffffffffffffffffffffffffffffffffffffff1661083f6104e7565b73ffffffffffffffffffffffffffffffffffffffff1614610895576040517f08c379a000000000000000000000000000000000000000000000000000000000815260040161088c90610e61565b60405180910390fd5b565b6002600154036108dc576040517f08c379a00000000000000000000000000000000000000000000000000000000081526004016108d390610ecd565b60405180910390fd5b6002600181905550565b60018081905550565b60008060009054906101000a900473ffffffffffffffffffffffffffffffffffffffff169050816000806101000a81548173ffffffffffffffffffffffffffffffffffffffff021916908373ffffffffffffffffffffffffffffffffffffffff1602179055508173ffffffffffffffffffffffffffffffffffffffff168173ffffffffffffffffffffffffffffffffffffffff167f8be0079c531659141344cd1fd0a4f28419497f9722a3daafe3b4186f6b6457e060405160405180910390a35050565b600033905090565b600080fd5b6000819050919050565b6109d3816109c0565b81146109de57600080fd5b50565b6000813590506109f0816109ca565b92915050565b600060208284031215610a0c57610a0b6109bb565b5b6000610a1a848285016109e1565b91505092915050565b600073ffffffffffffffffffffffffffffffffffffffff82169050919050565b6000610a4e82610a23565b9050919050565b610a5e81610a43565b8114610a6957600080fd5b50565b600081359050610a7b81610a55565b92915050565b600060208284031215610a9757610a966109bb565b5b6000610aa584828501610a6c565b91505092915050565b610ab781610a43565b82525050565b6000602082019050610ad26000830184610aae565b92915050565b610ae1816109c0565b82525050565b6000602082019050610afc6000830184610ad8565b92915050565b60008060408385031215610b1957610b186109bb565b5b6000610b2785828601610a6c565b9250506020610b38858286016109e1565b9150509250929050565b6000604082019050610b576000830185610ad8565b610b646020830184610ad8565b9392505050565b60008060408385031215610b8257610b816109bb565b5b6000610b90858286016109e1565b9250506020610ba1858286016109e1565b9150509250929050565b7f4e487b7100000000000000000000000000000000000000000000000000000000600052601160045260246000fd5b6000610be5826109c0565b9150610bf0836109c0565b9250828201905080821115610c0857610c07610bab565b5b92915050565b6000604082019050610c236000830185610aae565b610c306020830184610ad8565b9392505050565b60008115159050919050565b610c4c81610c37565b8114610c5757600080fd5b50565b600081519050610c6981610c43565b92915050565b600060208284031215610c8557610c846109bb565b5b6000610c9384828501610c5a565b91505092915050565b6000610ca7826109c0565b9150610cb2836109c0565b9250828203905081811115610cca57610cc9610bab565b5b92915050565b7f4e487b7100000000000000000000000000000000000000000000000000000000600052601260045260246000fd5b6000610d0a826109c0565b9150610d15836109c0565b925082610d2557610d24610cd0565b5b828204905092915050565b6000610d3b826109c0565b9150610d46836109c0565b9250828202610d54816109c0565b91508282048414831517610d6b57610d6a610bab565b5b5092915050565b600082825260208201905092915050565b7f4f776e61626c653a206e6577206f776e657220697320746865207a65726f206160008201527f6464726573730000000000000000000000000000000000000000000000000000602082015250565b6000610ddf602683610d72565b9150610dea82610d83565b604082019050919050565b60006020820190508181036000830152610e0e81610dd2565b9050919050565b7f4f776e61626c653a2063616c6c6572206973206e6f7420746865206f776e6572600082015250565b6000610e4b602083610d72565b9150610e5682610e15565b602082019050919050565b60006020820190508181036000830152610e7a81610e3e565b9050919050565b7f5265656e7472616e637947756172643a207265656e7472616e742063616c6c00600082015250565b6000610eb7601f83610d72565b9150610ec282610e81565b602082019050919050565b60006020820190508181036000830152610ee681610eaa565b905091905056fea2646970667358221220d445ad0278682783c7e602f1fa8532559dcc44c953a8e996778298143baa66a264736f6c63430008110033",
  "devdoc": {
    "kind": "dev",
    "methods": {
      "owner()": {
        "details": "Returns the address of the current owner."
      },
      "renounceOwnership()": {
        "details": "Leaves the contract without owner. It will not be possible to call `onlyOwner` functions. Can only be called by the current owner. NOTE: Renouncing ownership will leave the contract without an owner, thereby disabling any functionality that is only available to the owner."
      },
      "transferOwnership(address)": {
        "details": "Transfers ownership of the contract to a new account (`newOwner`). Can only be called by the current owner."
      }
    },
    "version": 1
  },
  "userdoc": {
    "kind": "user",
    "methods": {},
    "version": 1
  },
  "storageLayout": {
    "storage": [
      {
        "astId": 7,
        "contract": "contracts/PrivateSaleLock.sol:PrivateSaleLock",
        "label": "_owner",
        "offset": 0,
        "slot": "0",
        "type": "t_address"
      },
      {
        "astId": 123,
        "contract": "contracts/PrivateSaleLock.sol:PrivateSaleLock",
        "label": "_status",
        "offset": 0,
        "slot": "1",
        "type": "t_uint256"
      },
      {
        "astId": 1040,
        "contract": "contracts/PrivateSaleLock.sol:PrivateSaleLock",
        "label": "userToLockInfo",
        "offset": 0,
        "slot": "2",
        "type": "t_mapping(t_address,t_struct(LockInfo)1062_storage)"
      },
      {
        "astId": 1042,
        "contract": "contracts/PrivateSaleLock.sol:PrivateSaleLock",
        "label": "dtecTokenAddress",
        "offset": 0,
        "slot": "3",
        "type": "t_address"
      },
      {
        "astId": 1044,
        "contract": "contracts/PrivateSaleLock.sol:PrivateSaleLock",
        "label": "tokenLocker",
        "offset": 0,
        "slot": "4",
        "type": "t_address"
      },
      {
        "astId": 1047,
        "contract": "contracts/PrivateSaleLock.sol:PrivateSaleLock",
        "label": "period",
        "offset": 0,
        "slot": "5",
        "type": "t_uint256"
      },
      {
        "astId": 1049,
        "contract": "contracts/PrivateSaleLock.sol:PrivateSaleLock",
        "label": "releaseRate",
        "offset": 0,
        "slot": "6",
        "type": "t_uint256"
      },
      {
        "astId": 1051,
        "contract": "contracts/PrivateSaleLock.sol:PrivateSaleLock",
        "label": "lockStartTime",
        "offset": 0,
        "slot": "7",
        "type": "t_uint256"
      }
    ],
    "types": {
      "t_address": {
        "encoding": "inplace",
        "label": "address",
        "numberOfBytes": "20"
      },
      "t_mapping(t_address,t_struct(LockInfo)1062_storage)": {
        "encoding": "mapping",
        "key": "t_address",
        "label": "mapping(address => struct LinearLock.LockInfo)",
        "numberOfBytes": "32",
        "value": "t_struct(LockInfo)1062_storage"
      },
      "t_struct(LockInfo)1062_storage": {
        "encoding": "inplace",
        "label": "struct LinearLock.LockInfo",
        "members": [
          {
            "astId": 1059,
            "contract": "contracts/PrivateSaleLock.sol:PrivateSaleLock",
            "label": "totalAmount",
            "offset": 0,
            "slot": "0",
            "type": "t_uint256"
          },
          {
            "astId": 1061,
            "contract": "contracts/PrivateSaleLock.sol:PrivateSaleLock",
            "label": "totalClaimed",
            "offset": 0,
            "slot": "1",
            "type": "t_uint256"
          }
        ],
        "numberOfBytes": "64"
      },
      "t_uint256": {
        "encoding": "inplace",
        "label": "uint256",
        "numberOfBytes": "32"
      }
    }
  }
}